:100000005DC1000091C100008FC100008DC10000E2
:100010008BC1000089C1000087C1000085C10000BC
:1000200083C1000081C100000C948A1D7DC10000C5
:100030007BC1000079C1000077C1000075C10000DC
:1000400073C1000071C100006FC100006DC10000EC
:1000500086C6000069C1000067C100000C94400B17
:1000600063C1000061C100005FC100005DC100000C
:100070005BC1000059C1000057C1000055C100001C
:1000800053C1000051C100004FC100004DC100002C
:100090004BC1000049C1000047C1000045C100003C
:1000A00043C1000041C100003FC100001A031F030B
:1000B00024032903D1029F028502090385028502D8
:1000C00085028C02830488048D04920497048504BD
:1000D0008A048F0494049904791E9B1E891F9B1E19
:1000E000891FE01E021F891F551F671F05A84CCDE1
:1000F000B2D44EB93836A9020C50B9918688083C62
:10010000A6AAAA2ABE000000803F00100100001528
:10011000050000140900001812000111020002126B
:100120000300031304010423000605160600061944
:100130000700071A0803082A000809240A000A15FC
:100140000B000B250C000B1606000C160D000D26DF
:100150000E000E160F000F261000101711041127A5
:100160000009122813001318140014281500151084
:10017000160016201700171018001820190019145F
:100180001A001A241B001A1606001B151C001C2539
:100190001D001D141E001E241F001F1520001F1609
:1001A0000D00202521002117220021150B002227F8
:1001B0002300231624052426000A00040506070848
:1001C000090A0B0C0D0E101112131415161718191D
:1001D0001A1B1C1D1E20212223242627292A2B120C
:1001E0000336003600360036003600360036004151
:1001F00000000020034D00690064006900200046F3
:100200000069006700680074006500720020003615
:10021000003400000028037700770077002E006488
:10022000006A00740065006300680074006F006F6E
:10023000006C0073002E0063006F006D00AE0000C4
:1002400000040309040902650002010080F00904AA
:100250000000000101000009240100010900010162
:10026000090401000201030000072401000141000C
:1002700006240201010006240202020009240301EF
:100280000301020100092403020401010100090520
:10029000010240000000000525010101090582025C
:1002A00040000000000525010103120110010000BB
:1002B00000408025080002000102000111241FBE39
:1002C000CFEFDAE0DEBFCDBF04B603FE17C08091EA
:1002D000D1099091D209A091D309B091D4098A3C57
:1002E0009C4AA244BC4D51F41092D1091092D209FB
:1002F0001092D3091092D4090C94003812E0A0E0B7
:10030000B1E0E8E2F5E402C005900D92A43FB10728
:10031000D9F729E0A4EFB2E001C01D92A13DB207D8
:10032000E1F73AD30C9492226BCEABC5089580913D
:10033000B6059091B7050E94BC1F882359F0A1D53E
:100340009FE088E10FB6F894A895809360000FBEF7
:1003500090936000089520916B0330916C032F7788
:100360003327A2E3B4E0E6E3F5E055E0E63BF5072A
:1003700079F0808187FF09C08F77A901481B510957
:100380004230510510F01C92108211963196EDCF3B
:1003900008958C31A1F480916B0390916C030097C8
:1003A00011F48FEF9FEF24E0E2E3F5E0DF011D920F
:1003B0002A95E9F7909333058093320508958F339A
:1003C00099F480916B0390916C03009711F48FEF77
:1003D0009FEF24E0E2E3F5E0DF011D922A95E9F7C3
:1003E000909335058093340508958C3129F410924B
:1003F00033051092320508958F3321F4109235059C
:10040000109234050895982F811102C08CE101C02B
:100410008FE36091C403643008F060E09093990327
:100420000E945B1384E0E2E3F5E0DF011D928A9510
:10043000E9F70895482F63E0809104010C94050DBD
:10044000CF938091D203882361F1823018F428EE93
:1004500033E002C021E030E080916B0390916C03A7
:1004600040913205509133054115510531F0BC01E1
:10047000641B750B6217730770F44091340550913B
:1004800035054115510569F0841B950B82179307BB
:1004900040F0C1E001C0C0E08C2FB5DF8C2FCF91C0
:1004A000C9CFCF910895EF92FF920F931F93CF93EF
:1004B000DF9300D000D0CDB7DEB7E12CF12C00E007
:1004C00010E0BE016F5F7F4F8091B6059091B70538
:1004D0000E94102081110CC00F5F1F4F08371105BB
:1004E00008F0BCC0A895E11482E0F80651F7B6C048
:1004F0008FEFE81AF80A8981E82FEF708E2F90E0CD
:10050000FC013497EC30F10518F000E010E0EBCF7F
:10051000EA5AFF4F0C9460228A818A3F51F08C3F47
:1005200051F0883F91F781E00E94D10D0E94B10DFA
:10053000ECCF81E001C080E00E94D10DE6CF2A819E
:100540002F7080910401281305C08B818452803460
:10055000E0F610C030E090E0AC01415051094F701E
:1005600055272417350781F48B819CED980F903423
:1005700060F6845E90E0FC01EE5CFB4F2C812083F2
:10058000FC01EA5CFA4F43C001968F709927281747
:10059000390709F0BACFEB81F0E0EE54FB4F8C81C4
:1005A00029C02A812F708091040128130AC0EB8191
:1005B000E452E03408F0A9CF80916B0390916C0372
:1005C00015C030E090E0AC01415051094F70552703
:1005D0002417350789F4EB818CED8E0F803408F0F9
:1005E00094CF80916B0390916C03E45EF0E0EA5C41
:1005F000FA4F8068808389CF01968F7099272817DA
:10060000390709F082CFEB81F0E0EE54FB4F108206
:100610007CCF8A818F7090910401891376CF8B8172
:10062000833009F072CF81E09C81911101C080E09C
:10063000EADE6BCFCE0101960E941D1766CFCE0178
:1006400001960E94161861CFCE0101960E94DF1715
:100650005CCFCE0101960E948B1757CF0F900F9061
:100660000F900F90DF91CF911F910F91FF90EF901E
:100670000895AF92BF92CF92DF92EF92FF920F93C5
:100680001F93CF93DF938091C809843009F079C11B
:100690000ADF0E94DE0B0E941E0C20917503309130
:1006A00076034091770350917803609179037091BC
:1006B0007A0380917B0390917C03A0E00E947F22CB
:1006C00011F01092D403D12CEE24E394F12C00E02D
:1006D00010E0D0E0C0E0B12CC12C209175032E2198
:1006E000309176033F214091770340235091780366
:1006F0005123609179036D2370917A037C2380915B
:100700007B0390917C038B219C21A0E00E947F229F
:1007100009F472C08D2D0E94AF0DA82E8091C903DF
:10072000823020F461E08A2D0E94240D8091C9035B
:10073000882331F04FE76A2D809104010E94050D56
:10074000E091990370916D0360916E0350916F0376
:100750004091700330917103209172039091730363
:1007600080917403E11127C0EE2DE0957E237093F4
:100770006D037F2D7095672360936E03602F6095E6
:10078000562350936F03512F509545234093700388
:100790004D2F40953423309371033C2F3095232304
:1007A000209372032B2D20959223909373039C2DFD
:1007B0009095892316C07E2970936D036F296093ED
:1007C0006E03502B50936F03412B409370033D2BCE
:1007D000309371032C2B209372039B299093730306
:1007E0008C29809374036091C403643018F48D2DB8
:1007F0000E945B138D2DCDDD20917D032E21309144
:100800007E033F2140917F03402350918003512379
:10081000609181036D23709182037C238091830317
:10082000909184038B219C21A0E00E947F22D9F12A
:100830008D2D0E94AF0DA82E20916D032E21309199
:100840006E033F2140916F03402350917003512369
:10085000609171036D23709172037C238091730307
:10086000909174038B219C21A0E0E09104010E94EF
:100870007F2221F0E1508E2F8F7001C08E2F90913A
:10088000C903923020F440E06A2D0E94DD0C809173
:10089000C903882331F040E06A2D809104010E9451
:1008A000050D8D2DA2DD9701A8016D2F7C2F8B2DBD
:1008B0009C2D01E00E94662279018A01D62FC72F64
:1008C000B82EC92ED39480E4D81207CF8091C503E7
:1008D000882399F10E94F00DE82F8091990390915F
:1008E0000401882321F08FEF890F8F7001C0892FB9
:1008F0004E2F50E0FA013197EA30F105F0F4EE594D
:10090000FF4F0C94602241E001C040E068E013C05A
:1009100041E001C040E069E00EC041E001C040E0BC
:100920006AE009C041E001C040E06BE004C041E082
:1009300001C040E06CE00E94DD0C8091B605909112
:10094000B7050E94F51F80916B0390916C03209175
:10095000690330916A03821B930B499778F0809169
:100960006B0390916C0390936A038093690368DD35
:10097000F2DC0E94B01482E497E0A4D381E080937B
:10098000F402DF91CF911F910F91FF90EF90DF90D4
:10099000CF90BF90AF90089584B7877F84BF0FB684
:1009A000F894A8958091600088618093600010920F
:1009B00060000FBE80E890E00FB6F894809361006D
:1009C000909361000FBE85BF85BF1FD127D253D240
:1009D000F8D5D4D7CCD70E94EA1A0E94ED0D2FEF9C
:1009E00089EF90E0215080409040E1F700C0000086
:1009F000E5D624D720918D03217030E040E050E00F
:100A000060E070E080E090E0A0E00E947F2221F0B2
:100A100023D30E94A416FFCF0E946D1D789480916D
:100A2000CE038093D40325DE0E94A21F8091F4029E
:100A30008823C9F3A895F7CFF999FECF9F7092BD8F
:100A400081BD60BDF894FA9AF99A78940895F9995D
:100A5000FECF92BD81BDF89A80B50895AF92BF9246
:100A6000CF92DF92EF92FF920F931F93CF93DF937A
:100A70006091040182E090E0DFDF6091030183E098
:100A800090E0DADF6091C5038AE090E0D5DF609105
:100A9000C90389E090E0D0DF6091CF0385E090E06A
:100AA000CBDF6091C6038CE090E0C6DF6091C303AA
:100AB0008DE090E0C1DF6091C4038EE090E0BCDF88
:100AC0006091D0038FE090E0B7DF6091D30380E1C5
:100AD00090E0B2DF6091CD0381E190E0ADDF609105
:100AE000C70382E190E0A8DF6091CC0383E190E04E
:100AF000A3DF6091CB0384E190E09EDF6091D1039E
:100B000085E190E099DF6091C20386E190E094DF97
:100B10006091CE0387E190E08FDF6091D20388E19E
:100B200090E08ADFCFEED1E08E010F5E1140C80168
:100B30008E539A4F6C017E0190E8E91A91E0F90A10
:100B40005E01E0ECAE1AB108F60161916F01C701D8
:100B500073DFFFEFEF1AFF0AEA14FB04A9F70C5F3B
:100B6000174F7E0180ECE80EF11CF80161918F01B6
:100B7000CE0162DF2196CE15DF05B9F7CF36F3E05F
:100B8000DF0791F6DF91CF911F910F91FF90EF90CA
:100B9000DF90CF90BF90AF90089561E080E090E04B
:100BA0004BDF8FEF80931B0192E0909304018FE75E
:100BB0008093030121E02093C5031092C903109292
:100BC000CF039093C60391EF9093C30394E0909367
:100BD000C4039EE19093D0038093D30396E4909353
:100BE000CD039CE39093C7032CE02093CC03809328
:100BF000CB031092D10380E48093C2031092D203FE
:100C00009093CE030E94AE0E29CFAF92BF92CF92A7
:100C1000DF92EF92FF920F931F93CF93DF9380E0C9
:100C200090E015DF813009F0B8DF81E090E00FDF60
:100C300080931B0182E090E00ADF8093040183E04F
:100C400090E005DF809303018AE090E000DF80936D
:100C5000C50389E090E0FBDE8093C90385E090E066
:100C6000F6DE8093CF038CE090E0F1DE8093C60344
:100C70008DE090E0ECDE8093C3038EE090E0E7DE51
:100C80008093C4038FE090E0E2DE8093D00380E1A4
:100C900090E0DDDE8093D30381E190E0D8DE8093A5
:100CA000CD0382E190E0D3DE8093C70383E190E03F
:100CB000CEDE8093CC0384E190E0C9DE8093CB0349
:100CC00085E190E0C4DE8093D10388E190E0BFDE4F
:100CD0008093D20386E190E0BADE8093C20387E17D
:100CE00090E0B5DE8093CE03CFEED1E07E0180E8C8
:100CF000E81A81E0F80A8E010F5E1140F801EE5308
:100D0000FA4F6F015E01F0ECAF1AB108C7019FDE28
:100D1000F60181936F01FFEFEF1AFF0AEA14FB045B
:100D2000A9F70C5F174F7E0180ECE80EF11CCE0195
:100D30008EDEF80181938F012196CE15DF05B9F77C
:100D4000CF36F3E0DF0791F6DF91CF911F910F913E
:100D5000FF90EF90DF90CF90BF90AF9008951F92DB
:100D60000F920FB60F9211248F939F93EF93FF93DF
:100D7000109285001092840080EE9FEF9093850082
:100D800080938400E5EDF3E080819181009719F074
:100D9000019791838083329683E0ED3DF807A1F7B8
:100DA00080919B0381111CC08091F5029091F60205
:100DB0008B34910581F481E090E09093F60280936A
:100DC000F5028091DE039091DF0301969093DF039B
:100DD0008093DE0305C001969093F6028093F5029E
:100DE0008091E0039091E10301969093E103809359
:100DF000E0038091DB039091DC03892B31F480E1E7
:100E000090E09093DC038093DB03FF91EF919F913F
:100E10008F910F900FBE0F901F90189587E884B99F
:100E200080EC87B9E4E6F0E08081877F80831092D0
:100E30008000E1E8F0E080818460808380818D7FA4
:100E4000808380818E7F8083F89480E49EEF9093EE
:100E5000850080938400EFE6F0E0808181608083EC
:100E6000E5EDF3E011821082138212821582148262
:100E7000178216820895EFE6F0E080818E7F8083EE
:100E80000895EFE6F0E08081816080830895089501
:100E90000F931F93FC0190E0408151816281738127
:100EA0004093040350930503609306037093070374
:100EB00090FD339688E140E050E060E870E00091FA
:100EC00004031091050320910603309107030423C6
:100ED0001523262337232E9A012B022B032B21F0D7
:100EE00000000000000000002E9876956795579549
:100EF0004795815021F79F5F903271F61F910F91B6
:100F000008950F931F93FC0190E04081518162810D
:100F10007381409300035093010360930203709325
:100F2000030390FD339688E140E050E060E870E014
:100F300000910003109101032091020330910303FB
:100F40000423152326233723469A012B022B032B38
:100F500021F000000000000000004698769567959B
:100F600057954795815021F79F5F903271F61F91F9
:100F70000F9108950F931F93FC0190E040815181E0
:100F8000628173814093FC025093FD026093FE02E4
:100F90007093FF0290FD339688E140E050E060E8F6
:100FA00070E00091FC021091FD022091FE02309150
:100FB000FF0204231523262337232D9A012B022B0E
:100FC000032B21F000000000000000002D98769512
:100FD000679557954795815021F79F5F903271F63D
:100FE0001F910F9108950F931F93FC0190E0408192
:100FF0005181628173814093F8025093F9026093AA
:10100000FA027093FB0290FD339688E140E050E0D5
:1010100060E870E00091F8021091F9022091FA0264
:101020003091FB0204231523262337232C9A012B0E
:10103000022B032B21F000000000000000002C9880
:101040007695679557954795815021F79F5F903228
:1010500071F61F910F9108950F931F93CF93DF9314
:10106000CDB7DEB7E0970FB6F894DEBF0FBECDBFA9
:1010700080E38E010F5F1F4FF801982F11929A9510
:10108000E9F789838F83888B8E8B898F8F8F88A7D1
:101090008EA73E9A84B1806784B9F894C801F8DEBF
:1010A000C8012FDFC80166DFC8019DDF7894E09694
:1010B0000FB6F894DEBF0FBECDBFDF91CF911F9169
:1010C0000F910895CF93DF93EC013E9A84B180672E
:1010D00084B9F894CE01DCDECE01C09612DFCE01D9
:1010E000805A9F4F47DFCE0180579F4F7CDF789417
:1010F000DF91CF91089540E450E062E070E088E035
:1011000093E00C948B220F931F93CF93DF938091E6
:1011100001018F5F883120F48093010180E057C086
:10112000109201019091000181E0892780930001D4
:10113000EED58F71823110F401E001C00FEE080F7F
:1011400080910001E0915603F0E0EC5AFC4F80835F
:10115000811102C0C0E001C0C7E0D9D5877012E09C
:10116000180F183008F017E088E0189FF0011124DC
:10117000E85FFC4FEC0FF11D8081823078F2C09166
:101180005603C083D0E0FE01E85BFC4F0083BFD56F
:10119000CE5ADC4F8F71885F88832091560330E0F0
:1011A000F901E65BFC4F1083F901E25BFC4F108212
:1011B000F901E05BFC4F1082F901E45BFC4F108207
:1011C0002F5F3F4F217033272093560381E0DF913B
:1011D000CF911F910F910895CF93DF93E82F862F22
:1011E000F0E0EF01C45BDC4F98819F5FDF01A65BFD
:1011F000BC4F3C91A32FA61BA770B0E0A25EBE4FD0
:101200002C919217B8F01882E25BFC4F4081442386
:1012100011F09FEF01C091E0980F391768F497FF24
:1012200003C091E0942703C031E0942F932790836B
:10123000288303C0988301C0892FDF91CF9108953F
:10124000282F862F30E0D901A05BBC4F9C919F5F77
:10125000F901EE5AFC4F4081941790F0F901EC5AD5
:10126000FC4F20811C92222311F09FEF01C091E0DE
:10127000980F983038F091E0922790834C9308951E
:101280009C930895892F0895CF93C62F40D525E0CC
:10129000969587952A95E1F78F7199278231910567
:1012A00010F4019601C04197EC2FF0E0E85BFC4F91
:1012B0008083CF9108958F3F51F46F3F41F4809127
:1012C000F7028F5F8F3F39F08093F70202C01092D0
:1012D000F70280E008951092F70281E008952F92BE
:1012E0003F924F925F926F927F928F929F92AF92B6
:1012F000BF92CF92DF92EF92FF920F931F93CF9303
:10130000DF93CDB7DEB7C754D1090FB6F894DEBF6F
:101310000FBECDBF4C018091D9039091DA03892B88
:1013200009F0ECC080E390E09093DA038093D90356
:101330009E012F5F3F4F23963FAF2EAF239780E450
:10134000F90111928A95E9F748E0A42E43E0B42E02
:10135000412C212C6501612CF6017080F1E0F7151C
:1013600008F4BBC0662D872D6BDF382E642D872DCA
:1013700033DF24968FAF249728E0829FC001112489
:10138000885F9C4FFC01E30DF11D2696FFAFEEAF89
:101390002697508011E0120DF1E0F51548F422E097
:1013A000F60120832696EEADFFAD2697708202C02F
:1013B000751002C0212E91C0662D842D3ED6289630
:1013C0008FAF289727961FAF2797072D10E0E1E0F2
:1013D000F0E0EC0FFD1FE00FF11F8081E52CF12CF8
:1013E00081114CC0652D872D66DF8823E9F08FD4ED
:1013F000682F637028968FAD28970E945B1322E0B8
:10140000F60120832696EEADFFAD26972083249625
:10141000FFAD2497F41518F0361408F0CEC02A94C6
:1014200027962FAE27972AC024962FAD24974216D1
:1014300078F4F801E25BFC4F1082F701E25BFC4FAD
:1014400031E03083F801E45BFC4F80EF808313C010
:1014500024969FAD2497941588F4F801E25BFC4F25
:1014600021E02083F701E25BFC4F1082F801E45B8E
:10147000FC4F30EF3083652D872D06DF631478F441
:10148000F801EC5AFC4F1082F701EC5AFC4F81E056
:101490008083F801E05BFC4F90EF908310C036141E
:1014A00088F4F801EC5AFC4F21E02083F701EC5A54
:1014B000FC4F1082F801E05BFC4F30EF3083652D6C
:1014C000872DE2DEE1E0F0E0EC0FFD1FEE0DFF1DE9
:1014D00081E0808327962FAC279763949FEFC91AEA
:1014E000D90AE8E06E1238CF4394F8E0AF0EB11C91
:1014F0004E1230CF21E0221508F005DE38E0E32E51
:1015000033E0F32ED12CC090A802B090A602A09098
:10151000A70200E010E0602F8D2D8FD5F701E00FBE
:10152000F11FE08133E0839FC0011124E23038F0E5
:10153000F401E80FF91FC082B182A28218C0F0E066
:10154000E85BFC4FE081F0E0D401A80FB91FCF01A8
:10155000880F991FE80FF91FEA55FD4F82818C9380
:10156000808111968C931197818112968C930F5FD5
:101570001F4F0830110579F6D39488E0E80EF11C6E
:1015800098E0D912C6CFC95BDF4F0FB6F894DEBF23
:101590000FBECDBFDF91CF911F910F91FF90EF90C4
:1015A000DF90CF90BF90AF909F908F907F906F9083
:1015B0005F904F903F902F900895631408F082CF72
:1015C0005FCF579A569A3F98479A5F9A5E9A88E2F9
:1015D000E2EEF3E0DF011D928A95E9F785B58460BC
:1015E00085BD85B58D7F85BD85B58E7F85BD80ED3B
:1015F00086BDEEE6F0E08081816080837894109271
:101600008D0310928E0310928F031092900310920C
:1016100091031092920310929303109294031092EC
:10162000850310928603109287031092880310920C
:10163000890310928A0310928B0310928C031092EC
:101640007D0310927E0310927F031092800310920C
:1016500081031092820310928303109284031092EC
:10166000750310927603109277031092780310920C
:10167000790310927A0310927B0310927C030895F1
:101680001F920F920FB60F9211247F928F929F920A
:10169000AF92BF92CF92DF92EF92FF920F931F9380
:1016A0002F933F934F935F936F937F938F939F936A
:1016B000AF93BF93CF93DF93EF93FF9380ED86BDFE
:1016C0005E9A5E98E0E421E030E040E050E060E0C7
:1016D00070E080E090E0D12CE12CF12C10E0D0E023
:1016E000C0E0B0E0A0E05F98379909C0722E832E69
:1016F000942EA52EB62EC72E082FF92F08C0712CB8
:10170000812C912CA12CB12CC12C00E0F0E0D72829
:10171000E828F9281A29DB29CC29B02BAF2B01E0C6
:101720000E9466225F9AE150F1F68091950390E065
:10173000FC0123E0EE0FFF1F2A95E1F7EE51FC4F6D
:10174000D094E094F0941095D095C095B095A09564
:10175000D082E182F2821383D483C583B683A783C8
:1017600001966AE070E00E944D228093950380917B
:101770006B0390916C03019690936C0380936B03C1
:10178000FF91EF91DF91CF91BF91AF919F918F9199
:101790007F916F915F914F913F912F911F910F9189
:1017A000FF90EF90DF90CF90BF90AF909F908F9081
:1017B0007F900F900FBE0F901F901895EF92FF92A1
:1017C0000F931F93CF93DF93E2EEF3E05FEF4FEFC2
:1017D0003FEF2FEF7FEF6FEF9FEF8FEFE080F18014
:1017E00002811381D481C581B681A78138965E219B
:1017F0004F21302321237D236C239B238A23A4E0C4
:10180000E233FA0759F750938D0340938E033093D8
:101810008F032093900370939103609392039093AE
:10182000930380939403652F742F832F922FDF915E
:10183000CF911F910F91FF90EF9008958F929F92FB
:10184000AF92BF92CF92DF92EF92FF920F931F93CE
:10185000CF93DF9370918503609186035091870346
:10186000409188033091890320918A0390918B03E2
:1018700080918C0300918D0310918E03D0918F0382
:10188000C0919003B0919103A0919203F0919303C2
:10189000E0919403872E8094962E9094A52EA09488
:1018A000B42EB094C32EC094D22ED094E92EE094DE
:1018B000F82EF09480228092750391229092760304
:1018C000AD22A0927703BC22B0927803CB22C092C3
:1018D0007903DA22D0927A03EF22E0927B03FE2290
:1018E000F0927C03802E8094912E9094AD2EA09443
:1018F000BC2EB094CB2EC094DA2ED094EF2EE09470
:10190000FE2EF094782170937D03692160937E030D
:101910005A2150937F034B21409380033C21309305
:1019200081032D21209382039E21909383038F2195
:10193000809384030093850310938603D0938703D9
:10194000C0938803B0938903A0938A03F0938B0319
:10195000E0938C03DF91CF911F910F91FF90EF9057
:10196000DF90CF90BF90AF909F908F90089580B3FD
:101970008F7080BB8AB1806F8AB9089585E091E04D
:101980009093B7058093B60580E091E0E2E3F4E040
:10199000DF019C011D9221503040E1F780E8E6E331
:1019A000F5E0DF011D928A95E9F784E0E2E3F5E0D6
:1019B000DF011D928A95E9F70895CF93DF9300D058
:1019C00000D0CDB7DEB7411102C090E801C090E968
:1019D000292F22952F7029838F70982B9A836F77E8
:1019E0006B83809103018F778C83BE016F5F7F4F84
:1019F0008091B6059091B7050E94D31F0F900F906C
:101A00000F900F90DF91CF910895CF93DF9300D087
:101A100000D0CDB7DEB79BE099838F70806B8A834F
:101A20006F776B834F774C83BE016F5F7F4F8091E1
:101A3000B6059091B7050E94D31F0F900F900F909D
:101A40000F90DF91CF910895CF93DF9300D000D016
:101A5000CDB7DEB7611102C090E801C090E92091D6
:101A6000040130919903231B392F32953F7039833C
:101A70002F70922B9A838F778B83809103018F77BE
:101A80008C83BE016F5F7F4F8091B6059091B70543
:101A90000E94D31F0F900F900F900F90DF91CF9166
:101AA0000895EF92FF920F931F93CF93DF9300D08F
:101AB00000D0CDB7DEB78B01F82E81E094E0E92E9F
:101AC00093E09F15C0F4E982F80180818A838181C7
:101AD0008B83319681810D5F1F4F8C83BE016F5FB9
:101AE0007F4F8091B6059091B7050E94D31FFDEFFF
:101AF000FF0E80E0E5CFFF2039F195E09983F801F2
:101B000090819A831B821C82F2E0FF1206C086E05D
:101B10008983F80181818B830EC0F3E0FF120BC033
:101B2000882311F0F98202C087E08983F80181815E
:101B30008B8382818C83BE016F5F7F4F8091B6055E
:101B40009091B7050E94D31F0F900F900F900F90A8
:101B5000DF91CF911F910F91FF90EF9008958C5DD1
:101B6000089580919B03811107C01092DF031092AA
:101B7000DE0381E080939B0380919A03833069F4B4
:101B800081E080939A038091DE039091DF030196B8
:101B90009093DF038093DE0308958F5F80939A0311
:101BA0000895882321F081E080939B03089510928B
:101BB0009B030895BC0120E130E081E090E0AB019F
:101BC00048235923452B41F4880F991F215031098F
:101BD000B1F780E090E00895089510929F03089572
:101BE000EF92FF921F93CF93DF93809175039091B3
:101BF000760360917D0370917E0340918D03509137
:101C00008E03009729F46115710511F4C0E078C0C6
:101C1000C0919E03403F510591F4C23081F022E013
:101C200020939E03C7DF009719F410929E0304C00F
:101C300090939D0380939C03C0919E0361C0AC2F41
:101C40002FEF2C0F253070F480919C0390919D0311
:101C500048235923452BD1F610929F03CB5FC093A5
:101C60009E034EC010919F03E12FF0E0E654FE4F1B
:101C70002491E4E02E9F90011124265F3E4FC1E0A5
:101C8000D0E0F901B4911B1325C0F9013196E4911C
:101C9000FE2FF07FEF70F03121F0F03221F0DA0109
:101CA00003C0DC0101C0DB017E0102C0EE0CFF1CA1
:101CB000EA95E2F7AE21BF21AB2B41F0F901329654
:101CC00044913196249120939E0307C02C5F3F4F8F
:101CD000A0E0D7CFA0939E0340E040939F03C09124
:101CE0009E03CC2309F492CF65DF009729F410926C
:101CF0009D0310929C0304C090939D0380939C03CA
:101D00008C2FDF91CF911F91FF90EF9008958091DC
:101D10001501909116019C01322F22273295330F25
:101D2000307E822793279C01232F332726958227F5
:101D300093279C013695322F2227379527958227A6
:101D4000932790931601809315010895861724F028
:101D500048171CF4842F0895862F0895CF93DF939E
:101D6000A2ECB5E0C4E0D8E0E2E8F6E080E31C9243
:101D700011961C92119712961C9212971882198232
:101D80008A831396239626E0A238B20781F7A4EC43
:101D9000B8E088E190E38083818382831C9211966E
:101DA0009C93119712961C9212973396139627E0E4
:101DB000E234F20781F7DF91CF9108952F923F929D
:101DC0004F925F926F927F928F929F92AF92BF924B
:101DD000CF92DF92EF92FF920F931F93CF93DF93F7
:101DE00000D000D000D0CDB7DEB7E091990380ECF1
:101DF000E89FF0011124B0918D03BB8390908E0376
:101E000080908F03709090036090910350909203A4
:101E10004090930330909403CF018C5F974F7C01E7
:101E2000EE53FA4FA2E4B7E0BD83AC8380549F4FDA
:101E30009A838983BB24B394C12CD12C00E010E099
:101E40001E82212CA12C2B812B21392D3C21482DA8
:101E50004D21572D5023662D61237E817521842DC0
:101E60008221932D9A21A0E00E947F2291F0D70138
:101E700012968C91AC81BD818C93D7018C91AC81F1
:101E8000BD8111968C93D70111968C91AC81BD8147
:101E900009C08281AC81BD818C93808111968C9325
:101EA0001197818112968C932B2D3C2D4D2D502F07
:101EB000612F7E81822D9A2D01E00E946622B22E32
:101EC000C32ED42E052F162F7E83282EA92EB3E0E5
:101ED000EB0EF11C33968C819D8103969D838C8340
:101EE000A981BA81EA16FB0609F0ADCF26960FB696
:101EF000F894DEBF0FBECDBFDF91CF911F910F9140
:101F0000FF90EF90DF90CF90BF90AF909F908F9019
:101F10007F906F905F904F903F902F9008958091A9
:101F200099038295880F880F807C482F50E0415C90
:101F30005F4F282F30E0421753070CF1F901EE5C98
:101F4000FB4FE081EE23C9F0982F9F73DB0123E064
:101F5000929FA00DB11D1124F0E09F01220F331FAD
:101F6000E20FF31FEA5DFE4F92819C9390811196E0
:101F70009C931197918112969C938F5FDACF08956D
:101F80004091990350E0FA0176E0EE0FFF1F7A9539
:101F9000E1F7EE5CFB4FE80FF11D90812FEF290F69
:101FA0002837B8F0E091A003F0E0EE0FFF1FE654F1
:101FB000FA4F90EC949F9001959F300D11242C5F67
:101FC000374FA90163E0869F400D511D1124CA01BE
:101FD0001BC0892F90E0019766E070E00E944D22BF
:101FE000862F43E160E08150B1DEE091A003F0E094
:101FF000EE0FFF1FE654FA4F90E09C01220F331FB3
:10200000820F931F8A559D4F918380830895E0919D
:10201000A103F0E0E655FC4F808186958695877098
:102020000895E091A103F0E0E655FC4F9081892FDF
:102030008370903208F08C5F0895883050F46830D7
:1020400040F4880F880F643010F06370605E860F74
:1020500008958FEF08952091A00330E0F901E6552F
:10206000FC4F8083F901E95EFE4F1082F901EA55C9
:10207000FC4F108285DF80E790E09093DC03809333
:10208000DB0308956F927F928F929F92AF92BF92DF
:10209000CF92DF92EF92FF920F931F93CF93DF9334
:1020A0006C01C091A103611108C0D0E0FE01E95E9E
:1020B000FE4F108111110BC056C0EC2FF0E0E95E0D
:1020C000FE4F90819F5F9083983078F34CC09FDFE4
:1020D000082FA7DFE02EE11A010F982E911AF12E9A
:1020E000F80E87E0891510F0892C01C0812C7F2C17
:1020F000A7E0AF1510F427E0722EB7E0BE1510F080
:102100001E2D01C010E0602E083010F097E0692EFF
:10211000CC0FDD1FC654DA4FA880B980611618F1C4
:10212000C82D7C1650F01E1551F0101741F0C9153E
:1021300031F0CF1521F0CF5FF4CF1F5FEFCF6C2FC1
:10214000812F7BDF982F990F890FF601E80FF11D82
:10215000D50112968C91129780838C918183119670
:102160008C918283E8CFDF91CF911F910F91FF90E7
:10217000EF90DF90CF90BF90AF909F908F907F9027
:102180006F9008952091A00330E0F901E655FC4FCF
:102190008083F901E95EFE4F1082F901EA55FC4F98
:1021A00091E09083EDDE80E790E09093DC038093F4
:1021B000DB030895481710F4841B02C0481B842FCA
:1021C000261718F4621B262F01C0261B820F0895C4
:1021D0003F924F925F926F927F928F929F92AF92B7
:1021E000BF92CF92DF92EF92FF920F931F93CF9304
:1021F000DF936C010091A103611108C010E0F801A8
:10220000E95EFE4FC081C1110BC070C0E02FF0E04D
:10221000E95EFE4F90819F5F90839E3078F366C0A9
:10222000F6DEB82EFEDEA82E9B2C9C1A8C2E8B0C74
:10223000782E7C1A6C2E680E87E0871510F0572CCC
:1022400001C0512C462CA7E0A61510F427E0422E21
:10225000B7E0B91510F0D92D01C0D0E0382C87E0D7
:10226000881510F497E0392E000F111FF801E6547D
:10227000FA4FE080F180C13039F00C2F0695043020
:1022800008F003E00C0F0DC001E00BC0212F4D2F13
:102290006A2D8B2D8FDF8C1740F41F5F4116B0F72E
:1022A000DF5F3D1618F1152DF9CFC81309C0D915F8
:1022B00049F0D81539F0171529F01611EECF02C0E4
:1022C000081758F3612F8D2FB8DE982F990F890FBB
:1022D000F601E80FF11DD70112968C9112978083B9
:1022E0008C91818311968C918283D7CFDF91CF918E
:1022F0001F910F91FF90EF90DF90CF90BF90AF9024
:102300009F908F907F906F905F904F903F90089537
:102310002091A00330E0F901E655FC4F8083F901DC
:10232000E95EFE4F1082F901EA55FC4F92E090837E
:1023300027DE80E790E09093DC038093DB03089531
:102340004F925F926F927F928F929F92AF92BF92C5
:10235000CF92DF92EF92FF920F931F93CF93DF9371
:102360008C01C091A10361111DC0D0E0FE01E95EA6
:10237000FE4FE080EE2009F4B7C049DED82E51DED2
:10238000C82EBD2CBE18AE2CAD0C982E9E188E2CCF
:10239000880ECC0FDD1FC654DA4F0990D881C02DAE
:1023A000F12C8DC0EC2FF0E0E95EFE4F90819F5F35
:1023B00090839B30D0F298C05B2C5F0C6C2D852DE8
:1023C0003CDE803460F4982F990F890FF801E80FF4
:1023D000F11D8A8180838881818389818283692C30
:1023E0006F0C662D842D29DE803460F4982F990FB0
:1023F000890FF801E80FF11D8A818083888181832C
:1024000089818283782C7F18672D842D16DE803495
:1024100060F4982F990F890FF801E80FF11D8A8158
:1024200080838881818389818283662D852D05DE65
:10243000803460F4982F990F890FF801E80FF11D8F
:102440008A8180838881818389818283672D852D1C
:10245000F4DD803460F4982F990F890FF801E80FAC
:10246000F11D8A8180838881818389818283662DA1
:102470008D2DE3DD803460F4982F990F890FF801DA
:10248000E80FF11D8A81808388818183898182831D
:10249000672D8D2DD2DD803460F4982F990F890F30
:1024A000F801E80FF11D8A81808388818183898109
:1024B0008283F394EF14C1F083E0F816A9F04A2C5C
:1024C0004F186C2D842DB9DD803408F075CF982F0E
:1024D000990F890FF801E80FF11D8A8180838881A7
:1024E00081838981828368CFDF91CF911F910F9182
:1024F000FF90EF90DF90CF90BF90AF909F908F9024
:102500007F906F905F904F9008952091A00330E0EE
:10251000F901E655FC4F8083F901E95EFE4F108218
:10252000F901EA55FC4F93E090832ADD80E790E0C3
:102530009093DC038093DB0308958F929F92AF9278
:10254000BF92CF92DF92EF92FF920F931F93CF93A0
:10255000DF938C01E090A103611108C0F12CF70119
:10256000E95EFE4FC081C1110BC098C0EE2DF0E0B6
:10257000E95EFE4F90819F5F90839F3078F38EC01D
:1025800046DDB82E4EDDA82ECB2CCC1AC394BC0E43
:10259000CC0FC250DC2ED094D80ECF5FC80F87E08E
:1025A0008D1510F08D2C01C0812CA7E0AC1510F01A
:1025B000DC2D01C0D0E09B2CB7E0BB1510F497E0F8
:1025C000992EF701EE0FFF1FE654FA4FE080F180DD
:1025D000DC1561F1B9102FC06A2D892D2EDD982FE1
:1025E000990F890FF801E80FF11DD70112968C9110
:1025F000129780838C91818311968C9182831BC06A
:10260000881540F3682D8D2F18DD982F990F890FAD
:10261000F801E80FF11DD70112968C911297808373
:102620008C91818311968C91828383948C2FC830F6
:1026300038F387E0E5CFCC0DCD1BDC189D1670F18B
:102640006D2D6D0F683090F48D2FF7DC982F990F5A
:10265000890FF801E80FF11DD70112968C9112979E
:1026600080838C91818311968C918283C83098F4F9
:102670006C2F8D2FE2DC982F990F890FF801E80F4E
:10268000F11DD70112968C91129780838C918183D2
:1026900011968C918283DF5FC150D0CFDF91CF91B3
:1026A0001F910F91FF90EF90DF90CF90BF90AF9070
:1026B0009F908F9008952091D7033091D803232BBA
:1026C00031F420E730E03093D8032093D703613012
:1026D00039F040F0623041F0633039F416DF05C064
:1026E00051DD03C0B8DC01C013DE8091A00390E08F
:1026F0000196837099278093A0030895CF92DF926B
:10270000EF92FF920F931F93CF93DF937B01809102
:10271000D7039091D803892B41F480E790E0909300
:10272000D8038093D70311E001C010E086EAC82ED9
:1027300083E0D82EC7E1D1E000E00093A103F601C9
:1027400081916F01811107C088818830F0F4612F79
:10275000C70198DC1AC0823038F488818E30A8F422
:10276000612FC70135DD11C0823039F488818B308B
:1027700060F4612FC701E4DD08C0833031F4888143
:102780008F3018F4612FC701D8DE0F5F2196043017
:10279000A1F6DF91CF911F910F91FF90EF90DF9005
:1027A000CF90089528E030E0A901481B510921E0AD
:1027B00030E002C0220F331F4A95E2F78091DE031A
:1027C0009091DF032823392381E0232B09F480E053
:1027D000089520919B036091DE037091DF0390E0E8
:1027E000211106C034E0660F771F3A95E1F705C066
:1027F00025E0660F771F2A95E1F728E030E0A90170
:10280000481B590B02C0769567954A95E2F770E030
:1028100080E090E00E94C72029E334EB48E45DE3C8
:102820000E9453210E94B62120E030E04EEF52E496
:102830000E94532120E030E04EEF52E40E94352008
:102840000E949920862F0895AF92BF92CF92DF9277
:10285000EF92FF920F931F93CF93DF938B01811120
:1028600080E4F82EC82FD0E05E012FE3A20EB11C49
:102870008F2D90E0A816B9060CF467C0FC01EE5449
:10288000FB4F6F018081823108F45DC0FF2DFF7323
:10289000EF2E823230F5F80123E0E29EE00DF11DCB
:1028A00011248251408121816281489FA00111241D
:1028B00094E0559547959A95E1F74083829F900162
:1028C000112444E0359527954A95E1F72183869FA9
:1028D000C001112454E0959587955A95E1F78283BC
:1028E00032C08A3270F481525DDF81112CC0F80150
:1028F00033E0E39EE00DF11D11241082118212825B
:1029000022C08233C0F4E80193E0F99FC00DD11DCD
:10291000112489525EDF488129819A81489FA00154
:1029200011245883829F900111243983899FC0010B
:1029300011249A8308C0863330F46EEC680F8F2F11
:10294000BADEF6011082F39493CFDF91CF911F91FD
:102950000F91FF90EF90DF90CF90BF90AF900895D0
:102960002DDA62E477E080919903D9DA62E477E0C6
:102970008091990369DF8091E0039091E103803DAC
:10298000974090F01092E1031092E0038091DD03F4
:102990008F5F8093DD038C3338F08091D4038F5F99
:1029A0008093D4031092DD038091CE03882369F1D4
:1029B0009091D403891307C00E947B088091D403AF
:1029C0008F5F8093D4039091D4038091CE038917B5
:1029D00020F482E497E00E946F0920917503309102
:1029E0007603409177035091780360917903709159
:1029F0007A0380917B0390917C03A0E00E947F2268
:102A000021F01092DD031092D40362E477E080910C
:102A1000990374CEEF92FF920F931F93CF93DF939E
:102A200050E0460F511D20EC829FC0011124DC01B3
:102A3000AE53BA4FC62FD0E0C417D5070CF095C0DF
:102A4000FD01EC0FFD1F90817E018FEFE81AF80A5F
:102A5000FD01EE0DFF1D20818E010E5F1F4FFD0158
:102A6000E00FF11F808191111EC021110BC088233E
:102A700009F44EC0803309F476C0813808F04AC0AA
:102A8000EEE05BC0811108C0203309F46CC021382E
:102A900008F042C0EAE051C02E3109F464C0213888
:102AA000E8F5ECE04AC0211110C0811107C0903355
:102AB00009F459C09138A0F5E2E03FC0943209F41E
:102AC00052C0913878F5E2E138C0811119C09217EF
:102AD00038F4203209F447C0213830F5E8E02DC041
:102AE000892F8695821730F09832E9F19138F0F409
:102AF000E4E023C09032B9F19138D0F4E6E01DC093
:102B00002532C0F4803279F19138B0F4E0E115C09B
:102B1000E0E013C0EDE011C0E9E00FC0EBE00DC054
:102B2000E1E00BC0E1E109C0E7E007C0E3E005C078
:102B3000E5E003C0E3E101C0EFE0F0E0CA0FDB1F16
:102B4000CF01880F991FE80FF91FEA55FD4F8081CB
:102B50008883ED01CE0DDF1D81818883ED01C00FDB
:102B6000D11F828188836D5F65CFDF91CF911F91E7
:102B70000F91FF90EF900895EF92FF920F931F93A4
:102B8000CF93DF9350E0460F511D20EC829FC00190
:102B90001124DC01AC5FB74FC62FD0E0C417D507B6
:102BA0000CF095C0FD01EC0FFD1F90817E018FEFB1
:102BB000E81AF80AFD01EE0DFF1D20818E010E5F5F
:102BC0001F4FFD01E00FF11F808191111EC02111E7
:102BD0000BC0882309F44EC0803309F476C08138D5
:102BE00008F04AC0EEE05BC0811108C0203309F450
:102BF0006CC0213808F042C0EAE051C02E3109F41F
:102C000064C02138E8F5ECE04AC0211110C0811100
:102C100007C0903309F459C09138A0F5E2E03FC0F5
:102C2000943209F452C0913878F5E2E138C081114C
:102C300019C0921738F4203209F447C0213830F512
:102C4000E8E02DC0892F8695821730F09832E9F19F
:102C50009138F0F4E4E023C09032B9F19138D0F427
:102C6000E6E01DC02532C0F4803279F19138B0F42D
:102C7000E0E115C0E0E013C0EDE011C0E9E00FC0F5
:102C8000EBE00DC0E1E00BC0E1E109C0E7E007C007
:102C9000E3E005C0E5E003C0E3E101C0EFE0F0E000
:102CA000CA0FDB1FCF01880F991FE80FF91FEA55E4
:102CB000FD4F80818883ED01CE0DDF1D81818883EA
:102CC000ED01C00FD11F828188836D5F65CFDF91D9
:102CD000CF911F910F91FF90EF900895292F3327E7
:102CE0002230310559F02330310569F021303105AA
:102CF00019F582E190E02AEA32E022C085E690E010
:102D000025E432E01DC099278130910561F040F043
:102D10008230910559F0039779F4EFEDF1E008C0A6
:102D2000E1E4F2E005C0E5E1F2E002C0E3EFF1E04A
:102D3000849190E09F0104C080E090E020E030E0CA
:102D4000FA0131832083089570D6F89480E0EFEF84
:102D5000F9EF3197F1F700C000008F5F8038B9F7C5
:102D60008AEC9CEAA2E4BCED8093D1099093D2094D
:102D7000A093D309B093D4099CE088E10FB6F894EE
:102D8000A895809360000FBE90936000FFCFCF9313
:102D9000DF93CDB7DEB761970FB6F894DEBF0FBEF5
:102DA000CDBF9091C1039430B9F4882381F1E091B3
:102DB00084099FEF9E0F983050F5F0E0EE0FFF1F53
:102DC000E155FC4F0190F081E02D309701F165E86D
:102DD00079E0815009951BC09330C9F48230B8F076
:102DE00080918409863099F480918509813079F445
:102DF00081E1E2EEF2E0DE01119601900D928A95FA
:102E0000E1F7BE016F5F7F4F81E10E94510D619636
:102E10000FB6F894DEBF0FBECDBFDF91CF910895FE
:102E20009FEF980F983040F4E82FF0E0EE0FFF1F6F
:102E3000E155FC4F718360830895FC018091B003DC
:102E400081111EC081E08093B00384E899E09093E3
:102E5000AF038093AE038181803FC9F482818E37B6
:102E600049F4838190910201891711F08F3779F429
:102E700083E00EC081110BC08381813041F408C012
:102E80008091C1038130C1F48181893721F082E0D2
:102E90008093C1030895A091AE03B091AF03CD011B
:102EA000029620911C0130911D018217930778F73B
:102EB00084E08093C1031AC0823061F1A091AE0317
:102EC000B091AF03CD01039620911C0130911D01FB
:102ED00082179307E0F602979093AF038093AE03B7
:102EE00081818C93A091AE03B091AF03CD01019687
:102EF0009093AF038093AE0382818C93A091AE0335
:102F0000B091AF03CD0101969093AF038093AE03D0
:102F100083818C930895FC011092B0038091C103CA
:102F20008130A9F48181893709F046C0A091AE03B0
:102F3000B091AF03CD01029620911C0130911D018B
:102F400082179307C8F584E08093C1031AC08230CA
:102F500099F1A091AE03B091AF03CD0103962091FA
:102F60001C0130911D018217930730F50297909351
:102F7000AF038093AE0381818C93A091AE03B09197
:102F8000AF03CD0101969093AF038093AE0382818E
:102F90008C93A091AE03B091AF03CD0101969093B5
:102FA000AF038093AE0383818C938091AE039091A5
:102FB000AF0384589940EBDE1092C103089520912D
:102FC000B003222391F11092B0032091C10322306B
:102FD00051F1A091AE03B091AF039D012E5F3F4F21
:102FE00040911C0150911D0124173507E0F4FC01AC
:102FF000CD0101969093AF038093AE0381818C93B2
:10300000A091AE03B091AF03CD0101969093AF03B1
:103010008093AE0382818C938091AE039091AF0335
:1030200084589940B4DE1092C10308952091B003F2
:10303000222321F11092B0032091C1032230E1F04C
:10304000A091AE03B091AF039D012F5F3F4F409120
:103050001C0150911D012417350770F4FC013093B9
:10306000AF032093AE0381818C938091AE03909146
:10307000AF03845899408BDE1092C10308952F92BC
:103080003F924F925F926F927F928F929F92AF92F8
:10309000BF92CF92DF92EF92FF920F931F93CF9345
:1030A000DF93CDB7DEB7A3970FB6F894DEBF0FBEA0
:1030B000CDBF833008F4EAC0FB01908101819111FA
:1030C00060C0863008F4E2C0002309F4DFC06281EA
:1030D000662309F4DBC0448190E00497242F30E09C
:1030E000281739070CF0D2C0613108F0CFC03596EF
:1030F00070E061507109CB01A3E095958795AA9581
:10310000E1F7677028E1629F602D11240130D9F446
:1031100020EC289FD001299FB00D11247D01E60EDF
:10312000F11C20E030E0241760F4519189010E0D6C
:103130001F1D0E531A4F550FD8015C932F5F3F4F41
:10314000F2CF68DCA3C0023009F0A0C020EC289FB9
:10315000D001299FB00D11247D01E60EF11C20E065
:1031600030E0241760F4519189010E0D1F1D0C5F92
:10317000174F550FD8015C932F5F3F4FF2CFFCDC08
:1031800085C0913009F082C0013041F0023009F071
:103190007DC0E4E0CE2EE8E0DE2E04C072ECC72E47
:1031A00075E0D72E99249394A12CB12C20E8E22E1F
:1031B000FF24F3942224239439E7332E44E0542E41
:1031C00050E1852E17EF60E3662E712C9701B9E16F
:1031D000EB16F10410F028E130E058E1E51AF108AF
:1031E00080EF89831A822B823C825D821E820F834C
:1031F00098868986422E2A871B871C871D871E87F3
:103200001F87188B198B1A8B1B8B1C8B1D8B1E8B8E
:103210001F8B188F198F1A8F1B8F1C8F1D8F1E8F5E
:103220001F8F18A319A31AA31BA3F601EA0DFB1DF8
:103230004AE0265F3F4F5F01AC18BD08642F70E085
:103240006217730798F48191AA24A394B12CAC0E51
:10325000BD1EA60EB71EAFE78A9FC0011124B301A1
:103260000E943922D5016C934F5FE5CFBE016F5F9D
:103270007F4F8BE0840D0E94510D8091B605909197
:10328000B705B3D69394B1E19B12A0CFA3960FB626
:10329000F894DEBF0FBECDBFDF91CF911F910F918C
:1032A000FF90EF90DF90CF90BF90AF909F908F9066
:1032B0007F906F905F904F903F902F900895FC010A
:1032C00090E050E041505109292F30E02417350794
:1032D00094F4DB01A20FB31F2C91283150F481E04C
:1032E000890FDB01A80FB11D8C91DF01A20FB11D69
:1032F0008C939E5FE9CF0895CF93DF93CDB7DEB770
:10330000AD970FB6F894DEBF0FBECDBF80EF8983B7
:103310001A8281E08B8399E79C8392E09D838E8360
:103320001F82909104019F5F988789878091030194
:103330008A8783E08B878091CF038C8787E08D8796
:103340008091C9038E8788E08F878091C503888B21
:103350008AE0898B8091C4038A8B8BE08B8B809170
:10336000C303982F93709C8B9CE09D8B82958F70EC
:103370008E8B8DE08F8B8091C6038150888F8EE07D
:10338000898F8091D0038A8F8FE08B8F8091D303B8
:103390008C8F80E18D8F8091CD038E8F81E18F8F17
:1033A0008091C70388A382E189A38091CC038AA37B
:1033B00083E18BA38091CB038CA384E18DA38091C7
:1033C000D1038EA385E18FA38091C20388A786E1F4
:1033D00089A78091CE038AA787E18BA78091D2032A
:1033E0008CA787EF8DA7BE016F5F7F4F8DE20E9494
:1033F000510DAD960FB6F894DEBF0FBECDBFDF9175
:10340000CF9108951F93CF93DF93CDB7DEB7689721
:103410000FB6F894DEBF0FBECDBF1091D2030FB62A
:10342000F894A89590916000986190936000109234
:1034300060000FBEFE01319698E1DF011D929A9562
:10344000E9F7482FCF013BDF898181508093040148
:103450008A81809303018C818093CF038885809338
:10346000C90389858093C5038B858093C4038D85AB
:10347000B0E18B9FC00111249C85892B8093C303ED
:103480008E858F5F8093C6038F858093D003898953
:103490008093CD038A898093C7038B898093CC0363
:1034A0008D898093D1038E898093C2038F89809305
:1034B000CE03888D8093D203181721F0811102C0AA
:1034C0000E94030263E080E0F6D80E942E0514DF1C
:1034D0000E9405069FE088E10FB6F894A8958093B6
:1034E00060000FBE9093600068960FB6F894DEBF40
:1034F0000FBECDBFDF91CF911F910895882329F092
:10350000FB018081811101C0F7CE0895882309F461
:1035100060C0FB018081813019F0823079F008951C
:103520000FB6F894A8958091600088618093600040
:10353000109260000FBE0E942C0806CC0FB6F894C3
:10354000A89580916000886180936000109260006F
:103550000FBE0E94CD054FEF5FEF6FEF70E08FEF72
:103560009FEF0E9447072FEF81EE94E021508040AB
:103570009040E1F700C000004FEF5FEF6FEF70E0A9
:1035800080E090E00E9447072FEF81EE94E0215009
:1035900080409040E1F700C000004FEF5FEF6FEF19
:1035A00070E08FEF9FEF0E9447072FEF81EE94E0CE
:1035B000215080409040E1F700C000009DDE9FE078
:1035C00088E10FB6F894A895809360000FBE9093A1
:1035D0006000089562E07AE181E022DC6EE77AE142
:1035E00082E01EDC66E87AE183E01ADC6FE378E1D2
:1035F00084E016CCCF92DF92EF92FF920F931F934D
:10360000CF93DF93EC018B017A01DCD1811133C0C0
:10361000E114F10439F0F70180819181081B190B45
:10362000C80FD91FC12CD12C0115110519F180919A
:10363000E80085FD16C08091E8008E778093E80051
:1036400081D4E114F10449F0F70180819181C80E21
:10365000D91ED182C08285E00EC0B4D1882321F367
:103660000AC089918093F10001501109FFEFCF1A30
:10367000DF0ADACF80E0DF91CF911F910F91FF90A9
:10368000EF90DF90CF900895CF92DF92EF92FF926C
:103690000F931F93CF93DF93EC018B017A0192D1AB
:1036A000811133C0E114F10439F0F7018081918177
:1036B000081B190BC80FD91FC12CD12C01151105DE
:1036C00019F18091E80085FD16C08091E8008B77A4
:1036D0008093E80037D4E114F10449F0F7018081C8
:1036E0009181C80ED91ED182C08285E00EC06AD1F8
:1036F000882321F30AC08091F100899301501109B8
:10370000FFEFCF1ADF0ADACF80E0DF91CF911F9170
:103710000F91FF90EF90DF90CF9008952091CF0907
:103720003091D0092617370748F06115710539F433
:103730002091E8002E772093E80001C0B901FC0138
:1037400020E06115710591F18091C809882309F481
:1037500040C0853009F43FC08091E80083FD3DC042
:103760008091E80082FD2FC08091E80080FFE9CFC2
:103770002091F3008091F20090E0922B6115710589
:1037800051F08034910538F421912093F10061507B
:1037900071090196F3CF21E08034910509F020E012
:1037A0008091E8008E778093E800CBCF2111CCCFB9
:1037B0000AC08091C809882361F0853061F080914A
:1037C000E80083FD0AC08091E80082FFF2CF80E02C
:1037D000089582E0089583E0089581E0089520919E
:1037E000CF093091D0092617370748F061157105C8
:1037F00039F42091E8002E772093E80001C0B90148
:10380000FC0120E06115710599F18091C8098823B8
:1038100009F441C0853009F440C08091E80083FD7F
:103820003EC08091E80082FD30C08091E80080FFBA
:10383000E9CF2091F3008091F20090E0922B611586
:10384000710559F08034910540F424912093F100E2
:103850003196615071090196F2CF21E080349105D3
:1038600009F020E08091E8008E778093E800CACFCD
:103870002111CBCF0AC08091C809882361F085301F
:1038800061F08091E80083FD0AC08091E80082FF2A
:10389000F2CF80E0089582E0089583E0089581E00A
:1038A0000895982F973068F59093E900981739F0AC
:1038B0007091EC002091ED005091F00003C0242F96
:1038C000762F50E021FD02C09F5FECCF3091EB00DE
:1038D0003E7F3093EB003091ED003D7F3093ED0063
:1038E0003091EB0031603093EB007093EC0020934B
:1038F000ED005093F0002091EE0027FDE5CF80E031
:1039000008958F708093E90081E008950F931F93CD
:10391000CF93DF93062FEC0110E0101771F168814F
:10392000611103C01F5F2596F8CF2C81A981BA8150
:103930009B81862F8F70873010F080E01FC022306F
:1039400010F442E001C046E0E8E0F0E020E0EA17D1
:10395000FB0720F42F5FEE0FFF1FF9CF2295207F8A
:10396000422B50E4959F90011124661F6627661F25
:10397000622B97DF8111D6CFE0CF81E0DF91CF912D
:103980001F910F9108958091C90987FF11C08091FF
:10399000E80082FD05C08091C8098111F8CF11C0EF
:1039A0008091E8008B770BC08091C809882349F08B
:1039B0008091E80080FFF8CF8091E8008E778093B7
:1039C000E80008952091E4003091E50095E64091EB
:1039D000EC00842F817040FF23C08091E80080FDBF
:1039E0001DC08091C809882399F0853099F0809195
:1039F000EB0085FD11C04091E4005091E5002417D3
:103A0000350729F3915011F09A01E1CF84E0089530
:103A100082E0089583E0089581E0089580E00895AC
:103A20004091E80042FFDDCF089567D06ED0E0EE10
:103A3000F0E0808181608083E8EDF0E080818F7725
:103A4000808319BCA7EDB0E08C918E7F8C93808130
:103A50008F7E80831092C70908950F931F93CF9391
:103A6000DF934BD052D0C8EDD0E088818F77888328
:103A700088818068888388818F7D888319BC1092B3
:103A8000C8091092C4091092C6091092C50900EE27
:103A900010E0F80180818B7F80838881816088833A
:103AA00042E360E080E0FDDEE1EEF0E080818E7FC9
:103AB0008083E2EEF0E08081816080838081886095
:103AC0008083F80180818E7F8083888180618883F4
:103AD000DF91CF911F910F910895E8EDF0E0808183
:103AE0008F7E8083E7EDF0E080818160808384E0D9
:103AF00082BF81E08093C709B0CFE8EDF0E080811C
:103B00008E7F80831092E20008951092DA00109266
:103B1000E10008951F920F920FB60F9211242F9378
:103B20003F934F935F936F937F938F939F93AF9345
:103B3000BF93EF93FF938091E10082FF0AC08091D1
:103B4000E20082FF06C08091E1008B7F8093E1005C
:103B5000F8D18091DA0080FF1FC08091D80080FFEB
:103B60001BC08091DA008E7F8093DA008091D900AB
:103B700080FF0DC080E189BD82E189BD09B400FEEE
:103B8000FDCF81E08093C8090E94950105C019BC52
:103B90001092C8090E9496018091E10080FF18C030
:103BA0008091E20080FF14C08091E2008E7F8093BC
:103BB000E2008091E20080618093E2008091D80071
:103BC00080628093D80019BC85E08093C809B9D180
:103BD0008091E10084FF2FC08091E20084FF2BC020
:103BE00080E189BD82E189BD09B400FEFDCF8091ED
:103BF000D8008F7D8093D8008091E1008F7E8093E4
:103C0000E1008091E2008F7E8093E2008091E200EB
:103C100081608093E2008091C409882311F084E0E0
:103C200007C08091E30087FD02C081E001C083E00E
:103C30008093C80986D18091E10083FF22C08091E2
:103C4000E20083FF1EC08091E100877F8093E10046
:103C500082E08093C8091092C4098091E1008E7FB0
:103C60008093E1008091E2008E7F8093E20080915A
:103C7000E20080618093E20042E360E080E011DED8
:103C800060D1FF91EF91BF91AF919F918F917F9103
:103C90006F915F914F913F912F910F900FBE0F90B9
:103CA0001F9018951F93CF93DF93CDB7DEB7AA97D8
:103CB0000FB6F894DEBF0FBECDBFE9ECF9E08091FE
:103CC000F100819329E0E13DF207C9F73AD18091F3
:103CD000E80083FF1EC18091C9099091CA09492F4C
:103CE00050E04A30510508F014C1FA01E459FF4F81
:103CF000E7C3803881F0823809F00BC18091CD098B
:103D00008F708093E9008091EB0085FB882780F914
:103D10001092E90006C08091C5099091C6099111E1
:103D200082609091E800977F9093E8008093F10083
:103D30001092F100C5C0282F2D7F09F0EAC088231A
:103D400019F0823061F0E5C08091CB09813009F033
:103D5000E0C0933009F080E08093C6092BC08091C9
:103D6000CB09811127C08091CD098F7009F4D1C092
:103D70008093E9002091EB0020FF1CC0933021F4D8
:103D80008091EB00806214C09091EB009061909361
:103D9000EB0021E030E0A90102C0440F551F8A95D5
:103DA000E2F74093EA001092EA008091EB0088600D
:103DB0008093EB001092E9008091E800877F83C038
:103DC0008111A7C01091CB091F778091E300807803
:103DD000812B8093E3008091E800877F8093E80047
:103DE000D2DD8091E80080FFFCCF8091E300806805
:103DF0008093E300111102C082E001C083E0809350
:103E0000C80987C08058823008F083C08091CB09F0
:103E10009091CC098C3D53E0950771F583E08A833E
:103E20008AE289834FB7F894DE01139620E03EE0E2
:103E300051E2E32FF0E050935700E49120FF03C0DC
:103E4000E295EF703F5FEF708E2F90E0EA3010F058
:103E5000C79601C0C0968D939D932F5F243149F77B
:103E60004FBF8091E800877F8093E8006AE270E0AE
:103E7000CE01019653DC13C0AE014F5F5F4F6091DE
:103E8000CD090E946E16BC01892B09F442C09091A5
:103E9000E800977F9093E80089819A81A0DC809167
:103EA000E8008B778093E80034C0803891F58091EA
:103EB000E800877F8093E8008091C4098093F10037
:103EC0008091E8008E778093E8005DDD22C081114B
:103ED00020C08091CB099091CC0999270297CCF40E
:103EE0008091E800877F8093E8008091CB098093E0
:103EF000C40949DD8091C409811106C08091E300A5
:103F000087FD02C081E001C084E08093C8090E945F
:103F100097018091E80083FF0AC08091E800877FC5
:103F20008093E8008091EB0080628093EB00AA967A
:103F30000FB6F894DEBF0FBECDBFDF91CF911F91BA
:103F400008950895CF938091C809882399F0C0916E
:103F5000E900CF709091EC00892F817090FD80E88E
:103F6000C82B1092E9008091E80083FD9BDECF70A2
:103F7000C093E900CF910895CF93DF93EC011B86A6
:103F800082E08C83898761E0CE010196BFDC8823C3
:103F900031F061E0CE010696DF91CF91B7CC80E0A1
:103FA000DF91CF9108952091C8092430D1F49B016D
:103FB000FC0181818F708093E90040E050E064E073
:103FC00070E0C90117DB81110FC09091E800892FC3
:103FD000807295FD08C09091E8009E779093E8006C
:103FE000089582E0089580E008952091C809243062
:103FF00099F4FC0181818F708093E9002091F30096
:104000008091F20090E0922B892B41F08091E800A2
:104010008E778093E800D6CC82E0089580E0089502
:104020002091C809243011F080E00895FC018681B8
:104030008F708093E9008091E80082FFF5CF809136
:10404000E80085FFF1CFCB0140E050E064E070E094
:104050001BDB8091E80085FD05C08091E8008B772F
:104060008093E80081E008955058BB27AA270ED01E
:10407000E0C0D1D030F0D6D020F031F49F3F11F421
:104080001EF4C6C00EF4E095E7FBBCC0E92FE2D0F9
:1040900080F3BA17620773078407950718F071F465
:1040A0009EF5FAC00EF4E0950B2EBA2FA02D0B0151
:1040B000B90190010C01CA01A0011124FF27591B6D
:1040C00099F0593F50F4503E68F11A16F040A22F73
:1040D000232F342F4427585FF3CF469537952795E4
:1040E000A795F0405395C9F77EF41F16BA0B620BE3
:1040F000730B840BBAF09150A1F0FF0FBB1F661F2A
:10410000771F881FC2F70EC0BA0F621F731F841F6C
:1041100048F4879577956795B795F7959E3F08F092
:10412000B3CF9395880F08F09927EE0F9795879551
:10413000089598D088F09F5790F0B92F9927B751DC
:10414000A0F0D1F0660F771F881F991F1AF0BA955B
:10415000C9F712C0B13081F09FD0B1E008959CC082
:10416000672F782F8827B85F39F0B93FCCF3869551
:1041700077956795B395D9F73EF4909580957095AE
:1041800061957F4F8F4F9F4F0895E89409C097FB2B
:104190003EF490958095709561957F4F8F4F9F4F1E
:1041A0009923A9F0F92F96E9BB279395F695879562
:1041B00077956795B795F111F8CFFAF4BB0F11F425
:1041C00060FF1BC06F5F7F4F8F4F9F4F16C08823CC
:1041D00011F096E911C0772321F09EE8872F762F02
:1041E00005C0662371F096E8862F70E060E02AF043
:1041F0009A95660F771F881FDAF7880F969587952F
:1042000097F9089597F99F6780E870E060E0089556
:104210009FEF80EC089500240A94161617061806DE
:104220000906089500240A941216130614060506BA
:104230000895092E0394000C11F4882352F0BB0F4B
:1042400040F4BF2B11F460FF04C06F5F7F4F8F4FAE
:104250009F4F089557FD9058440F551F59F05F3FE9
:1042600071F04795880F97FB991F61F09F3F79F098
:1042700087950895121613061406551FF2CF46951A
:10428000F1DF08C0161617061806991FF1CF86959C
:104290007105610508940895E894BB276627772780
:1042A000CB0197F908950BD0C4CFB5DF28F0BADF62
:1042B00018F0952309F0A6CFABCF1124EECFCADFBB
:1042C000A0F3959FD1F3950F50E0551F629FF00129
:1042D000729FBB27F00DB11D639FAA27F00DB11D82
:1042E000AA1F649F6627B00DA11D661F829F22270B
:1042F000B00DA11D621F739FB00DA11D621F839F92
:10430000A00D611D221F749F3327A00D611D231F67
:10431000849F600D211D822F762F6A2F11249F57B5
:1043200050408AF0E1F088234AF0EE0FFF1FBB1FD8
:10433000661F771F881F91505040A9F79E3F510577
:1043400070F060CFAACF5F3FECF3983EDCF3869528
:1043500077956795B795F795E7959F5FC1F7FE2B22
:10436000880F911D9695879597F908959F9305D08D
:104370000F9007FCEE5F28C04BCF74DFE8F3E894A2
:10438000E0E0BB279F57F0F02AED3FE049EC06C084
:10439000EE0FBB0F661F771F881F28F0B23A620727
:1043A0007307840728F0B25A620B730B840BE395F2
:1043B0009A9572F7803830F49A95BB0F661F771F75
:1043C000881FD2F7904813C0EF93E0FF06C0A2EA1F
:1043D0002AED3FE049EC5FEB59DE2BDF0F900394B1
:1043E00001FC9058ECEEF0E00EC09F3F31F0915090
:1043F00020F4879577956795B795880F911D9695C9
:10440000879597F908959F938F937F936F93FF9369
:10441000EF939B01AC0147DFEF91FF9105D02F9106
:104420003F914F915F913FCFDF93CF931F930F93B6
:10443000FF92EF92DF927B018C01689405C0DA2E27
:10444000EF013DDFFE01E894A5912591359145915D
:104450005591AEF3EF011ADEFE019701A801DA943F
:1044600079F7DF90EF90FF900F911F91CF91DF913F
:104470000895AA1BBB1B51E107C0AA1FBB1FA617AB
:10448000B70710F0A61BB70B881F991F5A95A9F7FD
:1044900080959095BC01CD01089597FB072E16F4E9
:1044A000009406D077FD08D0E4DF07FC05D03EF489
:1044B000909581959F4F0895709561957F4F0895D0
:1044C000EE0FFF1F0590F491E02D09940F93083033
:1044D00090F0982F872F762F652F542F432F322F50
:1044E00022270850F4CF220F331F441F551F661F89
:1044F000771F881F991F0A95B2F70F91089500241E
:10450000A7FD00942A173005400550056005700589
:10451000800590050895DC0101C06D934150504025
:08452000E0F70895F894FFCFC5
:104528000118054A0E018240000001014000000107
:1045380000A28CD692938D08080808FFC4090C0ABB
:1045480008070605040300000008080810101018E2
:104558001818280C0C3000002000001000001E164F
:104568000C2A0D001C09000E04001C1C081E1E004D
:104578001414000A0A0014260B0D2A00091C000452
:104588000E000B280B0030000020000010000B2646
:104598000E002C04001D03000F020A241306280E27
:1045A800041A09020D0409201600261600190E0027
:1045B8000C07091820001724000F1800070C0A130D
:1045C80024001327000D1A00060D0B0B28000030DD
:1045D800000020000010130A241300270D001A06FB
:1045E800000D1C081C1E001E1400140A000A240AD0
:1045F800132A000D1C00080E00042C03001C0900DF
:10460800160F000C1200000A00001009000F170016
:104618000030000C0E0600261010100808083000A4
:10462800001720051821010F2601031A000026147F
:1046380000192600072C0F002A1300282104170C44
:1046480006002A0C00162501122803003000092A4A
:10465800060C240F0720190D1324090F2513122106
:1046680018031E28000F280F00220E00142400181B
:1046780011010A0800030E03020F0A0303070406C8
:1046880010130B051F0001250D0A2512051E1B0519
:10469800172107132203050509181C0C0F1E1613F2
:1046A8001320130E220606060B0B0B1518181E00F6
:1046B80000090000042700010C001D1C000B090064
:1046C8002111000E0300000000300000180000282F
:1046D8000C00140600201900100C001920000C1002
:1046E80000003000001800001E1E000F0F000030F0
:1046F8000000181907200D031124001212000918D0
:104708001818F07E7F0602000179060001002017C4
:044718000724F7007B
:00000001FF
